:020000040000FA
:0600000019EF2FF01200C1
:0608000019EF2FF01200B9
:06080800CAEF2CF0120003
:0608180016EF2DF01200A6
:06082A000100705E0000F9
:08083000C101000039000000C5
:08083800D9CFE6FFE1CFD9FFA3
:10084000E6520101C15104E01DEC1DF0DF6E02D043
:100850001AD8DF6E01019C51106E116A105001010F
:10086000CE271150CF2301019D51106E116A1050F7
:100870000101D0271150D123DF5000D0E552E552BD
:10088000E7CFD9FF12009C6B9D6B829200D082B0A3
:1008900075D082B073D082B071D082B06FD082B088
:1008A0006DD082B06BD082B069D082B067D082B098
:1008B00065D082B063D082B061D082B05FD082B0A8
:1008C0005DD082B05BD082B059D082B057D082B0B8
:1008D00055D082B053D082B051D082B04FD082B0C8
:1008E0004DD082B04BD082B049D082B047D082B0D8
:1008F00045D082B043D082B041D082B03FD082B0E8
:100900003DD082B03BD082B039D082B037D082B0F7
:1009100035D082B033D082B031D082B02FD082B007
:100920002DD082B02BD082B029D082B027D082B017
:1009300025D082B023D082B021D082B01FD082B027
:100940001DD082B01BD082B019D082B017D082B037
:1009500015D082B013D009D09C2B01D09D2BF28EE4
:10096000896B894F02D082B0FCD79A2F90D79B2FEA
:100970008ED7F28E010E1200ACEF04F000000000E2
:10098000F29E000082B0EAD70000000000000000E4
:1009900082A00DD0000000000000000082B0DED771
:1009A000000000000000000082B0D8D70000000066
:1009B000CE50A96F82B0D2D70000CF50AA6F0000EE
:1009C00082B0CCD7000000000000000082A0C6D793
:1009D000000000000000000082B0C0D7000000004E
:1009E0000000000082A0BAD7000000000000000054
:1009F00082B0B4D7000000000000000082B0AED783
:100A0000000000000000000082B0A8D70000000035
:100A10000000000082B0A2D700000000000000002B
:100A200082B09CD7000000000000000082B096D782
:100A300082948282986B996B823001E3898F01E303
:100A4000982B0000823001E3899F01E3982B00007E
:100A5000823001E3898D01E3982B0000823001E3AD
:100A6000899D01E3982B0000823001E3898B01E32B
:100A7000982B0000823001E3899B01E3982B000052
:100A8000823001E3898901E3982B0000823001E381
:100A9000899901E3982B0000823001E3898701E303
:100AA000982B0000823001E3899701E3982B000026
:100AB000823001E3898501E3982B0000823001E355
:100AC000899501E3982B0000823001E3898301E3DB
:100AD000982B0000823001E3899301E3982B0000FA
:100AE000823001E3898101E3982B0000823001E329
:100AF000899101E3982B0000823001E38A8F01E3A2
:100B0000982B0000823001E38A9F01E3982B0000BC
:100B1000823001E38A8D01E3982B0000823001E3EB
:100B20008A9D01E3982B0000823001E38A8B01E368
:100B3000982B0000823001E38A9B01E3982B000090
:100B4000823001E38A8901E3982B0000823001E3BF
:100B50008A9901E3982B0000823001E38A8701E340
:100B6000982B0000823001E38A9701E3982B000064
:100B7000823001E38A8501E3982B0000823001E393
:100B80008A9501E3982B0000823001E38A8301E318
:100B9000982B0000823001E38A9301E3982B000038
:100BA000823001E38A8101E3982B0000823001E367
:100BB0008A9101E3982B0000823001E38B8F01E3DF
:100BC000982B0000823001E38B9F01E3982B0000FB
:100BD000823001E38B8D01E3982B0000823001E32A
:100BE0008B9D01E3982B0000823001E38B8B01E3A6
:100BF000982B0000823001E38B9B01E3982B0000CF
:100C0000823001E38B8901E3982B0000823001E3FD
:100C10008B9901E3982B0000823001E38B8701E37D
:100C2000982B0000823001E38B9701E3982B0000A2
:100C3000823001E38B8501E3982B0000823001E3D1
:100C40008B9501E3982B0000823001E38B8301E355
:100C5000982B0000823001E38B9301E3982B000076
:100C6000823001E38B8101E3982B0000823001E3A5
:100C70008B9101E3982B0000823001E38C8F01E31C
:100C8000982B0000823001E38C9F01E3982B000039
:100C9000823001E38C8D01E3982B0000823001E368
:100CA0008C9D01E3982B0000823001E38C8B01E3E3
:100CB000982B0000823001E38C9B01E3982B00000D
:100CC000823001E38C8901E3982B0000823001E33C
:100CD0008C9901E3982B0000823001E38C8701E3BB
:100CE000982B0000823001E38C9701E3982B0000E1
:100CF000823001E38C8501E3982B0000823001E310
:100D00008C9501E3982B0000823001E38C8301E392
:100D1000982B0000823001E38C9301E3982B0000B4
:100D2000823001E38C8101E3982B0000823001E3E3
:100D30008C9101E3982B0000823001E38D8F01E359
:100D4000982B0000823001E38D9F01E3982B000077
:100D5000823001E38D8D01E3982B0000823001E3A6
:100D60008D9D01E3982B0000823001E38D8B01E320
:100D7000982B0000823001E38D9B01E3982B00004B
:100D8000823001E38D8901E3982B0000823001E37A
:100D90008D9901E3982B0000823001E38D8701E3F8
:100DA000982B0000823001E38D9701E3982B00001F
:100DB000823001E38D8501E3982B0000823001E34E
:100DC0008D9501E3982B0000823001E38D8301E3D0
:100DD000982B0000823001E38D9301E3982B0000F3
:100DE000823001E38D8101E3982B0000823001E322
:100DF0008D9101E3982B0000823001E38E8F01E397
:100E0000982B0000823001E38E9F01E3982B0000B5
:100E1000823001E38E8D01E3982B0000823001E3E4
:100E20008E9D01E3982B0000823001E38E8B01E35D
:100E3000982B0000823001E38E9B01E3982B000089
:100E4000823001E38E8901E3982B0000823001E3B8
:100E50008E9901E3982B0000823001E38E8701E335
:100E6000982B0000823001E38E9701E3982B00005D
:100E7000823001E38E8501E3982B0000823001E38C
:100E80008E9501E3982B0000823001E38E8301E30D
:100E9000982B0000823001E38E9301E3982B000031
:100EA000823001E38E8101E3982B0000823001E360
:100EB0008E9101E3982B0000823001E38F8F01E3D4
:100EC000982B0000823001E38F9F01E3982B0000F4
:100ED000823001E38F8D01E3982B0000823001E323
:100EE0008F9D01E3982B0000823001E38F8B01E39B
:100EF000982B0000823001E38F9B01E3982B0000C8
:100F0000823001E38F8901E3982B0000823001E3F6
:100F10008F9901E3982B0000823001E38F8701E372
:100F2000982B0000823001E38F9701E3982B00009B
:100F3000823001E38F8501E3982B0000823001E3CA
:100F40008F9501E3982B0000823001E38F8301E34A
:100F5000982B0000823001E38F9301E3982B00006F
:100F6000823001E38F8101E3982B0000823001E39E
:100F70008F9101E3982B89AF9FD2823001E3908F4C
:100F800001E3982B823001E3909F01E3982B00004E
:100F9000823001E3908D01E3982B0000823001E361
:100FA000909D01E3982B0000823001E3908B01E3D8
:100FB000982B0000823001E3909B01E3982B000006
:100FC000823001E3908901E3982B0000823001E335
:100FD000909901E3982B0000823001E3908701E3B0
:100FE000982B0000823001E3909701E3982B0000DA
:100FF000823001E3908501E3982B0000823001E309
:10100000909501E3982B0000823001E3908301E387
:10101000982B0000823001E3909301E3982B0000AD
:10102000823001E3908101E3982B0000823001E3DC
:10103000909101E3982B0000823001E3918F01E34E
:10104000982B0000823001E3919F01E3982B000070
:10105000823001E3918D01E3982B0000823001E39F
:10106000919D01E3982B0000823001E3918B01E315
:10107000982B0000823001E3919B01E3982B000044
:10108000823001E3918901E3982B0000823001E373
:10109000919901E3982B0000823001E3918701E3ED
:1010A000982B0000823001E3919701E3982B000018
:1010B000823001E3918501E3982B0000823001E347
:1010C000919501E3982B0000823001E3918301E3C5
:1010D000982B0000823001E3919301E3982B0000EC
:1010E000823001E3918101E3982B0000823001E31B
:1010F000919101E3982B0000823001E3928F01E38C
:10110000982B0000823001E3929F01E3982B0000AE
:10111000823001E3928D01E3982B0000823001E3DD
:10112000929D01E3982B0000823001E3928B01E352
:10113000982B0000823001E3929B01E3982B000082
:10114000823001E3928901E3982B0000823001E3B1
:10115000929901E3982B0000823001E3928701E32A
:10116000982B0000823001E3929701E3982B000056
:10117000823001E3928501E3982B0000823001E385
:10118000929501E3982B0000823001E3928301E302
:10119000982B0000823001E3929301E3982B00002A
:1011A000823001E3928101E3982B0000823001E359
:1011B000929101E3982B0000823001E3938F01E3C9
:1011C000982B0000823001E3939F01E3982B0000ED
:1011D000823001E3938D01E3982B0000823001E31C
:1011E000939D01E3982B0000823001E3938B01E390
:1011F000982B0000823001E3939B01E3982B0000C1
:10120000823001E3938901E3982B0000823001E3EF
:10121000939901E3982B0000823001E3938701E367
:10122000982B0000823001E3939701E3982B000094
:10123000823001E3938501E3982B0000823001E3C3
:10124000939501E3982B0000823001E3938301E33F
:10125000982B0000823001E3939301E3982B000068
:10126000823001E3938101E3982B0000823001E397
:10127000939101E3982B0000823001E3948F01E306
:10128000982B0000823001E3949F01E3982B00002B
:10129000823001E3948D01E3982B0000823001E35A
:1012A000949D01E3982B0000823001E3948B01E3CD
:1012B000982B0000823001E3949B01E3982B0000FF
:1012C000823001E3948901E3982B0000823001E32E
:1012D000949901E3982B0000823001E3948701E3A5
:1012E000982B0000823001E3949701E3982B0000D3
:1012F000823001E3948501E3982B0000823001E302
:10130000949501E3982B0000823001E3948301E37C
:10131000982B0000823001E3949301E3982B0000A6
:10132000823001E3948101E3982B0000823001E3D5
:10133000949101E3982B0000823001E3958F01E343
:10134000982B0000823001E3959F01E3982B000069
:10135000823001E3958D01E3982B0000823001E398
:10136000959D01E3982B0000823001E3958B01E30A
:10137000982B0000823001E3959B01E3982B00003D
:10138000823001E3958901E3982B0000823001E36C
:10139000959901E3982B0000823001E3958701E3E2
:1013A000982B0000823001E3959701E3982B000011
:1013B000823001E3958501E3982B0000823001E340
:1013C000959501E3982B0000823001E3958301E3BA
:1013D000982B0000823001E3959301E3982B0000E5
:1013E000823001E3958101E3982B0000823001E314
:1013F000959101E3982B0000823001E3968F01E381
:10140000982B0000823001E3969F01E3982B0000A7
:10141000823001E3968D01E3982B0000823001E3D6
:10142000969D01E3982B0000823001E3968B01E347
:10143000982B0000823001E3969B01E3982B00007B
:10144000823001E3968901E3982B0000823001E3AA
:10145000969901E3982B0000823001E3968701E31F
:10146000982B0000823001E3969701E3982B00004F
:10147000823001E3968501E3982B0000823001E37E
:10148000969501E3982B0000823001E3968301E3F7
:10149000982B0000823001E3969301E3982B000023
:1014A000823001E3968101E3982B0000823001E352
:1014B000969101E3982B0000380E981905E0700E04
:1014C000981902E0BCEF04F082928284F28E000E42
:1014D00012001200D9CFE6FFE1CFD9FFE65289C151
:1014E000DFFFDF50E840E840E8401F0BDF6EDF50D1
:1014F00000D0E552E552E7CFD9FF12002BD8EADF42
:10150000106E100E105C12E201018D510101A05D00
:101510000CE101018E5101019F5D07E101018F5135
:1015200001019E5D02E1010E14D011D00101945120
:101530000101A05D0CE10101955101019F5D07E1F1
:101540000101965101019E5D02E1010E02D0000EE3
:1015500000D01200BFDF106E100E105C02E2ADD89A
:1015600001D001D81200D9CFE6FFE1CFD9FF110E8B
:10157000E126030EDB68FA0EF36E020EF3CFDBFFFB
:10158000DE52040EDD6E800EDF6E080E89C1DBFFB9
:10159000070E8AC1DBFF060E8BC1DBFF050E8CC177
:1015A000DBFF0C0E8DC1DBFF0B0E8EC1DBFF0A0EC5
:1015B0008FC1DBFF090E90C1DBFF100E91C1DBFF75
:1015C0000F0E92C1DBFF0E0E93C1DBFF0D0EDB6A27
:1015D000010EF36E040EF3CFDBFFDBCF10F0590EDC
:1015E000E76E1018E8AE02D0E73402D0E750105C86
:1015F0004FE2080EDBAE10D0D950050FE96EDACFFE
:10160000EAFFDF50EE1A010EDB50EE1A020EDB503D
:10161000EE1A030EDB50EE1AD950050FE96EDACF41
:10162000EAFFD890EF36010EEB36020EEB36030ED2
:10163000EB360C0EDBAE06D0D950050FE96EDACFD3
:10164000EAFFEE80D950090FE96EDACFEAFFD890B1
:10165000EF36010EEB36020EEB36030EEB36100EB4
:10166000DBAE06D0D950090FE96EDACFEAFFEE8083
:10167000D9500D0FE96EDACFEAFFD890EF36010EA0
:10168000EB36020EEB36030EEB36040EDB2AA5D743
:10169000080EDBCFA0F1070EDBCF9FF1060EDBCFEC
:1016A0009EF1F56E110EE15C02E2E16AE552E16E37
:1016B000F550E552E7CFD9FF1200D9CFE6FFE1CFD1
:1016C000D9FF090EE126030EDB68FA0EF36E020E57
:1016D000F3CFDBFFDE52040EDD6E800EDF6E080EF0
:1016E00089C1DBFF070E8AC1DBFF060E8BC1DBFF62
:1016F000050E8CC1DBFF010EF36E040EF3CFDBFF92
:10170000DBCF10F0210EE76E1018E8AE02D0E73400
:1017100002D0E750105C23E2080EDBAE10D0D950A7
:10172000050FE96EDACFEAFFDF50EE1A010EDB504B
:10173000EE1A020EDB50EE1A030EDB50EE1AD950F1
:10174000050FE96EDACFEAFFD890EF36010EEB36DF
:10175000020EEB36030EEB36040EDB2AD1D7080E51
:10176000DBCFA0F1070EDBCF9FF1060EDBCF9EF1A2
:10177000F56E090EE15C02E2E16AE552E16EF550B8
:10178000E552E7CFD9FF1200D9CFE6FFE1CFD9FF6D
:10179000030EE126CDC1DFFF010E41C1DBFF9ADE62
:1017A000E76E020EE7CFDBFF100EF36E020EDBCF0B
:1017B000F4FFF350F45C0AE2070E106E010EDBCF6B
:1017C000E7FF1050E726010EE7CFDBFF010EDB50ED
:1017D0000101D880CD5505E20101D22B000ED323A3
:1017E00016D10101D42B000ED523020EDB501708B1
:1017F00002E10101E16BDF50DF2AEA6A000FE96EC6
:10180000070EEA221A0EEF6E100EF36E020EDBCFF9
:10181000F4FFF350F45C0AE2DF50DF2AEA6A000FBB
:10182000E96E070EEA22320EEF6E09D0DF50DF2A92
:10183000EA6A000FE96E070EEA22330EEF6EA9C1C5
:10184000A5F1AAC1A6F10101A76B030ED890A53797
:10185000A637A737A837E806F9E1070E0101AB154F
:101860000101A75D07E00101AB2B000EAC23AD2306
:10187000AE23F3D7DF50DF2AEA6A000FE96E070EC6
:10188000EA22AEC1EFFFDF50DF2AEA6A000FE96EFD
:10189000070EEA22ADC1EFFFDF50DF2AEA6A000F30
:1018A000E96E070EEA22ACC1EFFFDF50DF2AEA6AD9
:1018B000000FE96E070EEA22ABC1EFFFDF50DF2A0F
:1018C000EA6A000FE96E070EEA22A6C1EFFFDF50B9
:1018D000DF2AEA6A000FE96E070EEA22A5C1EFFFD0
:1018E000DF50DF2AEA6A000FE96E070EEA22EF6A8C
:1018F000DF50DF2AEA6A000FE96E070EEA2289C18B
:10190000EFFFDF50DF2AEA6A000FE96E070EEA22D6
:101910008AC1EFFFDF50DF2AEA6A000FE96E070E87
:10192000EA228BC1EFFFDF50DF2AEA6A000FE96E7F
:10193000070EEA228CC1EFFFDF50DF2AEA6A000FB0
:10194000E96E070EEA228DC1EFFFDF50DF2AEA6A57
:10195000000FE96E070EEA228EC1EFFFDF50DF2A8B
:10196000EA6A000FE96E070EEA228FC1EFFF100E40
:10197000F36E020EDBCFF4FFF350F45C3FE3DF5075
:10198000DF2AEA6A000FE96E070EEA2290C1EFFF34
:10199000DF50DF2AEA6A000FE96E070EEA2291C1E2
:1019A000EFFFDF50DF2AEA6A000FE96E070EEA2236
:1019B00092C1EFFFDF50DF2AEA6A000FE96E070EDF
:1019C000EA2293C1EFFFDF50DF2AEA6A000FE96ED7
:1019D000070EEA2294C1EFFFDF50DF2AEA6A000F08
:1019E000E96E070EEA2295C1EFFFDF50DF2AEA6AAF
:1019F000000FE96E070EEA2296C1EFFFDF50EA6A98
:101A0000000FE96E070EEA22EF6ADFCFCDF1F56E27
:101A1000030EE15C02E2E16AE552E16EF550E55247
:101A2000E7CFD9FF1200D9CFE6FFE1CFD9FF030EF0
:101A3000E126CDC1DFFF010E41C1DBFF4BDDE76ECB
:101A4000020EE7CFDBFF100EF36E020EDBCFF4FFCA
:101A5000F350F45C0AE2070E106E010EDBCFE7FFD5
:101A60001050E726010EE7CFDBFF010EDB5001012E
:101A7000D880CD5505E20101D22B000ED32316D11B
:101A80000101D42B000ED523020EDB50170802E112
:101A90000101E16BDF50DF2AEA6A000FE96E020EF6
:101AA000EA221A0EEF6E100EF36E020EDBCFF4FF79
:101AB000F350F45C0AE2DF50DF2AEA6A000FE96EB5
:101AC000020EEA22320EEF6E09D0DF50DF2AEA6AF8
:101AD000000FE96E020EEA22330EEF6EA9C1A5F1E6
:101AE000AAC1A6F10101A76B030ED890A537A637AE
:101AF000A737A837E806F9E1070E0101AB15010188
:101B0000A75D07E00101AB2B000EAC23AD23AE2394
:101B1000F3D7DF50DF2AEA6A000FE96E020EEA22ED
:101B2000AEC1EFFFDF50DF2AEA6A000FE96E020E56
:101B3000EA22ADC1EFFFDF50DF2AEA6A000FE96E4B
:101B4000020EEA22ACC1EFFFDF50DF2AEA6A000F83
:101B5000E96E020EEA22ABC1EFFFDF50DF2AEA6A2C
:101B6000000FE96E020EEA22A6C1EFFFDF50DF2A66
:101B7000EA6A000FE96E020EEA22A5C1EFFFDF500C
:101B8000DF2AEA6A000FE96E020EEA22EF6ADF50EE
:101B9000DF2AEA6A000FE96E020EEA2289C1EFFF2E
:101BA000DF50DF2AEA6A000FE96E020EEA228AC1DC
:101BB000EFFFDF50DF2AEA6A000FE96E020EEA2229
:101BC0008BC1EFFFDF50DF2AEA6A000FE96E020ED9
:101BD000EA228CC1EFFFDF50DF2AEA6A000FE96ECC
:101BE000020EEA228DC1EFFFDF50DF2AEA6A000F02
:101BF000E96E020EEA228EC1EFFFDF50DF2AEA6AA9
:101C0000000FE96E020EEA228FC1EFFF100EF36E95
:101C1000020EDBCFF4FFF350F45C3FE3DF50DF2A2A
:101C2000EA6A000FE96E020EEA2290C1EFFFDF5070
:101C3000DF2AEA6A000FE96E020EEA2291C1EFFF85
:101C4000DF50DF2AEA6A000FE96E020EEA2292C133
:101C5000EFFFDF50DF2AEA6A000FE96E020EEA2288
:101C600093C1EFFFDF50DF2AEA6A000FE96E020E30
:101C7000EA2294C1EFFFDF50DF2AEA6A000FE96E23
:101C8000020EEA2295C1EFFFDF50DF2AEA6A000F59
:101C9000E96E020EEA2296C1EFFFDF50EA6A000FFA
:101CA000E96E020EEA22EF6ADFCFCDF1F56E030E88
:101CB000E15C02E2E16AE552E16EF550E552E7CF00
:101CC000D9FF1200D9CFE6FFE1CFD9FF030EE126FD
:101CD000CDC1DFFF010E41C1DBFF6AEC0AF0E76E08
:101CE000020EE7CFDBFF100EF36E020EDBCFF4FF28
:101CF000F350F45C0AE20E0E106E010EDBCFE7FF2C
:101D00001050E726010EE7CFDBFF010EDB5001018B
:101D1000D880CD5505E20101D22B000ED32388D304
:101D20000101D42B000ED523020EDB50170802E16F
:101D30000101E16B8150040B040A01E0010E010175
:101D4000DE1101E1E5D0A9C1A5F1AAC1A6F1010109
:101D5000A76B030ED890A537A637A737A837E80694
:101D6000F9E1070E0101AB150101A75D07E00101D3
:101D7000AB2B000EAC23AD23AE23F3D7DF50DF2A0D
:101D8000EA6A000FE96E070EEA22400EEF6EAEC15E
:101D9000E6FFB8EC15F0E552E66EDF50DF2AEA6A9E
:101DA000000FE96E070EEA22E552E750EF6EAEC172
:101DB000E6FFCAEC15F0E552E66EDF50DF2AEA6A6C
:101DC000000FE96E070EEA22E552E750EF6EADC153
:101DD000E6FFB8EC15F0E552E66EDF50DF2AEA6A5E
:101DE000000FE96E070EEA22E552E750EF6EADC133
:101DF000E6FFCAEC15F0E552E66EDF50DF2AEA6A2C
:101E0000000FE96E070EEA22E552E750EF6EACC113
:101E1000E6FFB8EC15F0E552E66EDF50DF2AEA6A1D
:101E2000000FE96E070EEA22E552E750EF6EACC1F3
:101E3000E6FFCAEC15F0E552E66EDF50DF2AEA6AEB
:101E4000000FE96E070EEA22E552E750EF6EABC1D4
:101E5000E6FFB8EC15F0E552E66EDF50DF2AEA6ADD
:101E6000000FE96E070EEA22E552E750EF6EABC1B4
:101E7000E6FFCAEC15F0E552E66EDF50DF2AEA6AAB
:101E8000000FE96E070EEA22E552E750EF6EA6C199
:101E9000E6FFB8EC15F0E552E66EDF50DF2AEA6A9D
:101EA000000FE96E070EEA22E552E750EF6EA6C179
:101EB000E6FFCAEC15F0E552E66EDF50DF2AEA6A6B
:101EC000000FE96E070EEA22E552E750EF6EA5C15A
:101ED000E6FFB8EC15F0E552E66EDF50DF2AEA6A5D
:101EE000000FE96E070EEA22E552E750EF6EA5C13A
:101EF000E6FFCAEC15F0E552E66EDF50DF2AEA6A2B
:101F0000000FE96E070EEA22E552E750EF6E09D0A6
:101F1000DF50DF2AEA6A000FE96E070EEA222A0E76
:101F2000EF6E89C1E6FFB8EC15F0E552E66EDF50C2
:101F3000DF2AEA6A000FE96E070EEA22E552E7504F
:101F4000EF6E89C1E6FFCAEC15F0E552E66EDF5090
:101F5000DF2AEA6A000FE96E070EEA22E552E7502F
:101F6000EF6E8AC1E6FFB8EC15F0E552E66EDF5081
:101F7000DF2AEA6A000FE96E070EEA22E552E7500F
:101F8000EF6E8AC1E6FFCAEC15F0E552E66EDF504F
:101F9000DF2AEA6A000FE96E070EEA22E552E750EF
:101FA000EF6E8BC1E6FFB8EC15F0E552E66EDF5040
:101FB000DF2AEA6A000FE96E070EEA22E552E750CF
:101FC000EF6E8BC1E6FFCAEC15F0E552E66EDF500E
:101FD000DF2AEA6A000FE96E070EEA22E552E750AF
:101FE000EF6E8CC1E6FFB8EC15F0E552E66EDF50FF
:101FF000DF2AEA6A000FE96E070EEA22E552E7508F
:10200000EF6E8CC1E6FFCAEC15F0E552E66EDF50CC
:10201000DF2AEA6A000FE96E070EEA22E552E7506E
:10202000EF6E8DC1E6FFB8EC15F0E552E66EDF50BD
:10203000DF2AEA6A000FE96E070EEA22E552E7504E
:10204000EF6E8DC1E6FFCAEC15F0E552E66EDF508B
:10205000DF2AEA6A000FE96E070EEA22E552E7502E
:10206000EF6E8EC1E6FFB8EC15F0E552E66EDF507C
:10207000DF2AEA6A000FE96E070EEA22E552E7500E
:10208000EF6E8EC1E6FFCAEC15F0E552E66EDF504A
:10209000DF2AEA6A000FE96E070EEA22E552E750EE
:1020A000EF6E8FC1E6FFB8EC15F0E552E66EDF503B
:1020B000DF2AEA6A000FE96E070EEA22E552E750CE
:1020C000EF6E8FC1E6FFCAEC15F0E552E66EDF5009
:1020D000DF2AEA6A000FE96E070EEA22E552E750AE
:1020E000EF6E100EF36E020EDBCFF4FFF350F45CD4
:1020F00001E2E0D090C1E6FFB8EC15F0E552E66EE3
:10210000DF50DF2AEA6A000FE96E070EEA22E55285
:10211000E750EF6E90C1E6FFCAEC15F0E552E66EAF
:10212000DF50DF2AEA6A000FE96E070EEA22E55265
:10213000E750EF6E91C1E6FFB8EC15F0E552E66EA0
:10214000DF50DF2AEA6A000FE96E070EEA22E55245
:10215000E750EF6E91C1E6FFCAEC15F0E552E66E6E
:10216000DF50DF2AEA6A000FE96E070EEA22E55225
:10217000E750EF6E92C1E6FFB8EC15F0E552E66E5F
:10218000DF50DF2AEA6A000FE96E070EEA22E55205
:10219000E750EF6E92C1E6FFCAEC15F0E552E66E2D
:1021A000DF50DF2AEA6A000FE96E070EEA22E552E5
:1021B000E750EF6E93C1E6FFB8EC15F0E552E66E1E
:1021C000DF50DF2AEA6A000FE96E070EEA22E552C5
:1021D000E750EF6E93C1E6FFCAEC15F0E552E66EEC
:1021E000DF50DF2AEA6A000FE96E070EEA22E552A5
:1021F000E750EF6E94C1E6FFB8EC15F0E552E66EDD
:10220000DF50DF2AEA6A000FE96E070EEA22E55284
:10221000E750EF6E94C1E6FFCAEC15F0E552E66EAA
:10222000DF50DF2AEA6A000FE96E070EEA22E55264
:10223000E750EF6E95C1E6FFB8EC15F0E552E66E9B
:10224000DF50DF2AEA6A000FE96E070EEA22E55244
:10225000E750EF6E95C1E6FFCAEC15F0E552E66E69
:10226000DF50DF2AEA6A000FE96E070EEA22E55224
:10227000E750EF6E96C1E6FFB8EC15F0E552E66E5A
:10228000DF50DF2AEA6A000FE96E070EEA22E55204
:10229000E750EF6E96C1E6FFCAEC15F0E552E66E28
:1022A000DF50DF2AEA6A000FE96E070EEA22E552E4
:1022B000E750EF6EDF50DF2AEA6A000FE96E070E83
:1022C000EA223B0EEF6E0101DF5101E196D00101E0
:1022D000AF2B000EB023B123B223DF50DF2AEA6A0E
:1022E000000FE96E070EEA22230EEF6EB2C1E6FF81
:1022F000B8EC15F0E552E66EDF50DF2AEA6A000F0F
:10230000E96E070EEA22E552E750EF6EB2C1E6FF32
:10231000CAEC15F0E552E66EDF50DF2AEA6A000FDC
:10232000E96E070EEA22E552E750EF6EB1C1E6FF13
:10233000B8EC15F0E552E66EDF50DF2AEA6A000FCE
:10234000E96E070EEA22E552E750EF6EB1C1E6FFF3
:10235000CAEC15F0E552E66EDF50DF2AEA6A000F9C
:10236000E96E070EEA22E552E750EF6EB0C1E6FFD4
:10237000B8EC15F0E552E66EDF50DF2AEA6A000F8E
:10238000E96E070EEA22E552E750EF6EB0C1E6FFB4
:10239000CAEC15F0E552E66EDF50DF2AEA6A000F5C
:1023A000E96E070EEA22E552E750EF6EAFC1E6FF95
:1023B000DFDBE552E66EDF50DF2AEA6A000FE96EE6
:1023C000070EEA22E552E750EF6EAFC1E6FFE2DB0F
:1023D000E552E66EDF50DF2AEA6A000FE96E070E6B
:1023E000EA22E552E750EF6EDF50DF2AEA6A000F7B
:1023F000E96E070EEA223B0EEF6EDF50DF2AEA6A33
:10240000000FE96E070EEA220A0EEF6EDF50DF2A98
:10241000EA6A000FE96E070EEA220D0EEF6EDF503A
:10242000EA6A000FE96E070EEA22EF6ADFCFCDF10C
:10243000F56E030EE15C02E2E16AE552E16EF550F1
:10244000E552E7CFD9FF1200D9CFE6FFE1CFD9FFA0
:10245000030EE126CDC1DFFF010E41C1DBFF6AECB7
:102460000AF0E76E020EE7CFDBFF100EF36E020EEE
:10247000DBCFF4FFF350F45C0AE20E0E106E010E97
:10248000DBCFE7FF1050E726010EE7CFDBFF010EA1
:10249000DB500101D880CD5505E20101D22B000EA1
:1024A000D3235AD30101D42B000ED523020EDB50C7
:1024B000170802E10101E16B8150040B040A01E0FD
:1024C000010E0101DE1101E1D9D0A9C1A5F1AAC116
:1024D000A6F10101A76B030ED890A537A637A73741
:1024E000A837E806F9E1070E0101AB150101A75D68
:1024F00007E00101AB2B000EAC23AD23AE23F3D7D5
:10250000DF50DF2AEA6A000FE96E020EEA22400E6F
:10251000EF6EAEC1E6FF2CDBE552E66EDF50DF2A40
:10252000EA6A000FE96E020EEA22E552E750EF6E0A
:10253000AEC1E6FF2FDBE552E66EDF50DF2AEA6A26
:10254000000FE96E020EEA22E552E750EF6EADC1D0
:10255000E6FF0EDBE552E66EDF50DF2AEA6A000F87
:10256000E96E020EEA22E552E750EF6EADC1E6FFDA
:1025700011DBE552E66EDF50DF2AEA6A000FE96EF2
:10258000020EEA22E552E750EF6EACC1E6FFF0DA48
:10259000E552E66EDF50DF2AEA6A000FE96E020EAE
:1025A000EA22E552E750EF6EACC1E6FFF3DAE552FE
:1025B000E66EDF50DF2AEA6A000FE96E020EEA22B9
:1025C000E552E750EF6EABC1E6FFD2DAE552E66EB8
:1025D000DF50DF2AEA6A000FE96E020EEA22E552B6
:1025E000E750EF6EABC1E6FFD5DAE552E66EDF509D
:1025F000DF2AEA6A000FE96E020EEA22E552E7508E
:10260000EF6EA6C1E6FFB4DAE552E66EDF50DF2AD0
:10261000EA6A000FE96E020EEA22E552E750EF6E19
:10262000A6C1E6FFB7DAE552E66EDF50DF2AEA6AB6
:10263000000FE96E020EEA22E552E750EF6EA5C1E7
:10264000E6FF96DAE552E66EDF50DF2AEA6A000F0F
:10265000E96E020EEA22E552E750EF6EA5C1E6FFF1
:1026600099DAE552E66EDF50DF2AEA6A000FE96E7A
:10267000020EEA22E552E750EF6E09D0DF50DF2A62
:10268000EA6A000FE96E020EEA222A0EEF6E89C195
:10269000E6FF6EDAE552E66EDF50DF2AEA6A000FE7
:1026A000E96E020EEA22E552E750EF6E89C1E6FFBD
:1026B00071DAE552E66EDF50DF2AEA6A000FE96E52
:1026C000020EEA22E552E750EF6E8AC1E6FF50DAC9
:1026D000E552E66EDF50DF2AEA6A000FE96E020E6D
:1026E000EA22E552E750EF6E8AC1E6FF53DAE5527F
:1026F000E66EDF50DF2AEA6A000FE96E020EEA2278
:10270000E552E750EF6E8BC1E6FF32DAE552E66E36
:10271000DF50DF2AEA6A000FE96E020EEA22E55274
:10272000E750EF6E8BC1E6FF35DAE552E66EDF501B
:10273000DF2AEA6A000FE96E020EEA22E552E7504C
:10274000EF6E8CC1E6FF14DAE552E66EDF50DF2A49
:10275000EA6A000FE96E020EEA22E552E750EF6ED8
:102760008CC1E6FF17DAE552E66EDF50DF2AEA6A2F
:10277000000FE96E020EEA22E552E750EF6E8DC1BE
:10278000E6FFF6D9E552E66EDF50DF2AEA6A000F6F
:10279000E96E020EEA22E552E750EF6E8DC1E6FFC8
:1027A000F9D9E552E66EDF50DF2AEA6A000FE96EDA
:1027B000020EEA22E552E750EF6E8EC1E6FFD8D94D
:1027C000E552E66EDF50DF2AEA6A000FE96E020E7C
:1027D000EA22E552E750EF6E8EC1E6FFDBD9E55203
:1027E000E66EDF50DF2AEA6A000FE96E020EEA2287
:1027F000E552E750EF6E8FC1E6FFBAD9E552E66EBB
:10280000DF50DF2AEA6A000FE96E020EEA22E55283
:10281000E750EF6E8FC1E6FFBDD9E552E66EDF509F
:10282000DF2AEA6A000FE96E020EEA22E552E7505B
:10283000EF6E100EF36E020EDBCFF4FFF350F45C7C
:1028400001E2D2D090C1E6FF93D9E552E66EDF50A7
:10285000DF2AEA6A000FE96E020EEA22E552E7502B
:10286000EF6E90C1E6FF96D9E552E66EDF50DF2AA3
:10287000EA6A000FE96E020EEA22E552E750EF6EB7
:1028800091C1E6FF75D9E552E66EDF50DF2AEA6AAC
:10289000000FE96E020EEA22E552E750EF6E91C199
:1028A000E6FF78D9E552E66EDF50DF2AEA6A000FCC
:1028B000E96E020EEA22E552E750EF6E92C1E6FFA2
:1028C00057D9E552E66EDF50DF2AEA6A000FE96E5B
:1028D000020EEA22E552E750EF6E92C1E6FF5AD9A6
:1028E000E552E66EDF50DF2AEA6A000FE96E020E5B
:1028F000EA22E552E750EF6E93C1E6FF39D9E5527F
:10290000E66EDF50DF2AEA6A000FE96E020EEA2265
:10291000E552E750EF6E93C1E6FF3CD9E552E66E13
:10292000DF50DF2AEA6A000FE96E020EEA22E55262
:10293000E750EF6E94C1E6FF1BD9E552E66EDF501B
:10294000DF2AEA6A000FE96E020EEA22E552E7503A
:10295000EF6E94C1E6FF1ED9E552E66EDF50DF2A26
:10296000EA6A000FE96E020EEA22E552E750EF6EC6
:1029700095C1E6FFFDD8E552E66EDF50DF2AEA6A30
:10298000000FE96E020EEA22E552E750EF6E95C1A4
:10299000E6FF00D9E552E66EDF50DF2AEA6A000F53
:1029A000E96E020EEA22E552E750EF6E96C1E6FFAD
:1029B000DFD8E552E66EDF50DF2AEA6A000FE96EE3
:1029C000020EEA22E552E750EF6E96C1E6FFE2D82A
:1029D000E552E66EDF50DF2AEA6A000FE96E020E6A
:1029E000EA22E552E750EF6EDF50DF2AEA6A000F75
:1029F000E96E020EEA223B0EEF6E0101DF5101E1AA
:102A000090D00101AF2B000EB023B123B223DF50D1
:102A1000DF2AEA6A000FE96E020EEA22230EEF6E49
:102A2000B2C1E6FFA5D8E552E66EDF50DF2AEA6ABA
:102A3000000FE96E020EEA22E552E750EF6EB2C1D6
:102A4000E6FFA8D8E552E66EDF50DF2AEA6A000FFB
:102A5000E96E020EEA22E552E750EF6EB1C1E6FFE1
:102A600087D8E552E66EDF50DF2AEA6A000FE96E8A
:102A7000020EEA22E552E750EF6EB1C1E6FF8AD8B6
:102A8000E552E66EDF50DF2AEA6A000FE96E020EB9
:102A9000EA22E552E750EF6EB0C1E6FF69D8E55291
:102AA000E66EDF50DF2AEA6A000FE96E020EEA22C4
:102AB000E552E750EF6EB0C1E6FF6CD8E552E66E26
:102AC000DF50DF2AEA6A000FE96E020EEA22E552C1
:102AD000E750EF6EAFC1E6FF4BD8E552E66EDF5030
:102AE000DF2AEA6A000FE96E020EEA22E552E75099
:102AF000EF6EAFC1E6FF4ED8E552E66EDF50DF2A3B
:102B0000EA6A000FE96E020EEA22E552E750EF6E24
:102B1000DF50DF2AEA6A000FE96E020EEA223B0E5E
:102B2000EF6EDF50DF2AEA6A000FE96E020EEA223A
:102B30000A0EEF6EDF50DF2AEA6A000FE96E020E1E
:102B4000EA220D0EEF6EDF50EA6A000FE96E020E08
:102B5000EA22EF6ADFCFCDF1F56E030EE15C02E20F
:102B6000E16AE552E16EF550E552E7CFD9FF120078
:102B7000D9CFE6FFE1CFD9FFFE0EDB380F0BEA6AB3
:102B8000E80FE96E010EEA22EF5000D0E552E7CFE0
:102B9000D9FF1200D9CFE6FFE1CFD9FFFE0EDB50FF
:102BA0000F0BEA6AE80FE96E010EEA22EF5000D03F
:102BB000E552E7CFD9FF1200BBC1BFF1BCC1C0F1E4
:102BC000B9C1BDF1BAC1BEF1D0C1D8F1D1C1D9F1FD
:102BD000CEC1D6F1CFC1D7F1C1C1C2F1D4C1DCF1B0
:102BE000D5C1DDF1D2C1DAF1D3C1DBF10101CE6B88
:102BF000CF6B0101D06BD16B0101D26BD36B0101A3
:102C0000D46BD56B0101010EE16F12000101B80E0A
:102C1000896FBFC18AF1C0C18BF1BDC18CF1BEC14A
:102C20008DF1D8C18EF1D9C18FF1D6C190F1D7C144
:102C300091F1C2C192F1DCC193F1DDC194F1DAC12D
:102C400095F1DBC196F112000101F95103E0C4ECEA
:102C50000BF002D013EC0DF012000101F95103E06A
:102C600062EC0EF002D024EC12F012000101E251ED
:0A2C700002E0EADF01D0F1DF1200FC
:062C7A009EEC29F0C5EC00
:102C800028F0D76AD66A870ED56EF294CF6ACE6ADC
:102C9000B10ECD6E9E900101A96BAA6BA56BA66BC0
:102CA000A76BA86BAB6BAC6BAD6BAE6B0101DE6B56
:102CB000DF6B0101AF6BB06BB16BB26BEF0E926E5D
:102CC000770E936EF90E946EF19E806A816A826A25
:102CD0009E6B9F6BA06BA16BA26BB96BBA6BBB6B4E
:102CE000BC6B0101D06BD16BD06BD16B0101846BDC
:102CF000856B866B876B0101C46BC56BCC6BCD6B31
:102D0000F96B12000101C35108E0060E0101FA5DE2
:102D100003E36D50020B01E001D09AD91200D9CF24
:102D2000E6FFE1CFD9FFFE0EDB50230802E1FD0EE6
:102D30004BD0FE0EDB5002E1FE0E46D0FE0EDB5005
:102D40000A0802E1FE0E40D0FE0EDB500D0802E143
:102D5000FE0E3AD00101C86B300EF36EFE0EDBCFD3
:102D6000F4FFF350F45C02E2FF0E2ED0FE0EDB50B7
:102D7000390804E3300EC86F000E26D0410EF36E02
:102D8000FE0EDBCFF4FFF350F45C02E2FF0E1CD02A
:102D9000FE0EDB50460804E3370EC86F000E14D059
:102DA000610EF36EFE0EDBCFF4FFF350F45C02E233
:102DB000FF0E0AD0FE0EDB50660804E3570EC86F04
:102DC000000E02D0FF0E00D0E552E7CFD9FF12006F
:102DD0000101406B0101C751EA6A000FE96E010E63
:102DE000EA22EF50E66E9BDFE552FF0803E10101A6
:102DF000C72BF0D70101C751EA6A000FE96E010E37
:102E0000EA22EF50E66E8BDFE552FE0802E1FF0E8C
:102E100022D00101C751EA6A000FE96E010EEA22D1
:102E2000EF50E66E7CDFE552000913E10101403905
:102E3000F00B406F0101C751EA6A000FE96E010E05
:102E4000EA22EF50D880C855010140270101C72B65
:102E5000E0D7000E00D012000101C76B00016051E5
:102E60000101C75D66E2C751EA6A000FE96E010E13
:102E7000EA22EF50E66E53DFE552000A43E0FF0A14
:102E800031E0010A1AE0030A01E050D00101C66BEB
:102E9000400EC65D09E2C651EA6A420FE96E010EB4
:102EA000EA22EF6AC62BF4D7C66BC96B0101406BEF
:102EB0000101CA6B010ECB6F39D00101CA050AE1CD
:102EC000C651EA6A420FE96E010EEA2240C1EFFFE5
:102ED000C62BCA6B0101406B0101CB0502E1010E5B
:102EE000C96F24D00101CA050AE1C651EA6A420F3E
:102EF000E96E010EEA2240C1EFFFC62BCA6B010149
:102F0000406B14D001014039F00B406F0101C751F3
:102F1000EA6A000FE96E010EEA22EF50D880C85528
:102F2000010140270101010ECA6F00D00101C72B2A
:102F300095D71200D9CFE6FFE1CFD9FF0A0EF36E85
:102F4000FE0EDBCFF4FFF350F45C04E2FE0EDB5028
:102F5000300F05D0FE0EDB50F60F410F00D0E552CA
:102F6000E7CFD9FF1200D9CFE6FFE1CFD9FFE65274
:102F70000101C76B400EC75D09E2C751EA6A000F45
:102F8000E96E010EEA22EF6AC72BF4D7010EC76F74
:102F9000C66B0101230E006F0101C66B100EC65DEA
:102FA00037E2C651EA6A420FE96E010EEA22EFCF1C
:102FB000DFFFF00EDF14E8380F0BE66EBBDFE552E3
:102FC000E66E0101C751EA6A000FE96E010EEA22BE
:102FD000E552E750EF6EC72B0F0EDF14E66EAADF47
:102FE000E552E66E0101C751EA6A000FE96E010E73
:102FF000EA22E552E750EF6EC72BC751EA6A000F8D
:10300000E96E010EEA222D0EEF6EC72BC62BC6D736
:10301000C751EA6A000FE96E010EEA220A0EEF6E4E
:10302000C72BC751EA6A000FE96E010EEA220D0EA6
:10303000EF6EC72BC751EA6A000FE96E010EEA2254
:10304000EF6AC7C1CCF1E552E552E7CFD9FF1200D4
:10305000D9CFE6FFE1CFD9FF030EE1260101C3512D
:103060000FE0400EE66E000EE66E010EE66E0DEC11
:1030700026F0E552E552E552000901E0EDDE0ED002
:10308000400EE66E000EE66E010EE66E1AEC2CF0B7
:10309000E552E552E552000901E0DEDE0101C90515
:1030A00001E063D10101CC6B0101C96B0101425107
:1030B000FF0A01E1FAD0A50A01E1F5D00E0A01E10B
:1030C000E6D0630A01E1D8D0660A01E1C4D0090A5A
:1030D00001E1A5D0600A01E19AD0020A01E182D0A3
:1030E000030A54E0020A4CE0780A1BE0180A0DE0DB
:1030F0005B0A01E006D101010C0E446F0101040ED0
:10310000456F0101040ECC6F02D1AAEC0AF0A0C1F8
:1031100043F19FC144F19EC145F10101040ECC6F02
:10312000F6D00F0E010143150101A26F100E01012F
:1031300043150101DE6F200E010143150101DF6F10
:10314000400E010143150101E06F800E010143159E
:103150000101E26F010185C1F6FF852B86C1F7FFF2
:10316000000E862387C1F8FF000E87230800F5CFE5
:1031700088F188C143F1F86A0101020ECC6FC7D013
:1031800043C1C1F10101020ECC6FC1D045C1E3F1D1
:10319000010E010144150101E46F060E0101441501
:1031A0000101E66FA69EA684A96AE3C1A8FF550E99
:1031B000A76EAA0EA76EA682A1A8FED7A198A69E6A
:1031C000A684030EA96E010EA86E0101E35101E071
:1031D000A86A550EA76EAA0EA76EA682A1A8FED752
:1031E000A19895D0010143510101B56FB66B010162
:1031F0004451000EF350106E116A10500101B513C6
:1032000011500101B6130101030ECC6F80D0E4C14F
:1032100044F1E3C145F10101040ECC6F78D0010106
:1032200045510101B76FB86BB7C1B8F10101B76B78
:1032300001014451106E116A10500101B713115071
:103240000101B813B7C1E6FFB8C1E6FFEBEC2DF002
:10325000E552E5525CD001014351010A06E0010A42
:1032600001E006D0010EC26E03D0050EC26E00D082
:103270000101020ECC6F4BD0C282C2B2FED7C3CFC7
:1032800044F1C4CF45F10101040ECC6F40D00101DF
:10329000435103E034EC2AF002D010EC2AF0010193
:1032A000020ECC6F34D01DDA32D06D96DE6ADD6A44
:1032B000D9CFE9FFDACFEAFFEE06000EED5AEECFE6
:1032C00010F0EDCF11F01050111001E0F1D7FA0E0F
:1032D000E66EE66A3FDBE552E552FA0EE66EE66A16
:1032E00039DBE552E552FA0EE66EE66A33DBE5526B
:1032F000E552FA0EE66EE66A2DDBE552E552FF0076
:1033000006D0010142690101040ECC6F00D0010119
:10331000CC512BE028DE0101C35110E000016151C6
:103320000CE10001000E626F010E636FCCC166F00C
:103330000001676B0001010E616F17D00101CC51D4
:10334000EA6A000FE96E010EEA22EF6A000161519C
:103350000CE10001000E626F010E636FCCC166F0DC
:103360000001676B0001010E616FCECFA5F1CFCFD9
:10337000A6F10101A76B030E0101D890A537A6376E
:10338000A737A837E806F9E1070E0101AB150101DF
:10339000A75D07E00101AB2B000EAC23AD23AE23EC
:1033A000F3D7F2A441D0DCEC15F0F2940101E65120
:1033B00036E00101E72B0101E751050A21E0010A8E
:1033C00016E0070A0BE0010A06E0030A01E021D03B
:1033D0008CEC29F023D095EC29F020D022EC29F0B8
:1033E000020E0101E65D02E10101E76B17D022EC5C
:1033F00029F0040E0101E65D02E10101E76B0ED048
:1034000022EC29F0060E0101E65D02E10101E76B05
:1034100005D022EC29F00101E76B00D005D00101B5
:10342000E45102E022EC29F081A00DD00101020E4E
:10343000A26F81B803D00101030EA26F81BA03D03D
:103440000101040EA26F0101DE0E416F0101E25184
:1034500012E18150040B040A01E0010E0101DE11AA
:1034600003E00C0E0101415F0101DF5103E00A0E90
:103470000101415F03D0090E010141270101E05123
:103480000AE00101E15107E00101A25104E006EC6C
:1034900016F036EC16F0010141510101CD5D01E35A
:1034A000BBD00101A251040A01E187D0070A54E010
:1034B000010A37E0030A01E0AFD08A8E01018D0EC8
:1034C000896F01013C0E8A6F0101650E8B6F01014E
:1034D000170E8C6F0101580E8D6F01014D0E8E6F0E
:1034E0000101100E8F6F01015C0E906F0101FE0E45
:1034F000916F01016B0E926F0101A10E936F01019B
:10350000E90E946F0101690E956F01013A0E966FF5
:1035100036EC16F0010141510101CD5DF9E38A9EBF
:103520007BD001013C0E9B6F01019A6B8A8E1CECD3
:1035300004F0E76E020EE7CFDBFF020EDB5002E184
:1035400036EC16F0020EDB5005E10101415101019C
:10355000CD5DEDE38A9E60D001010F0E9B6F0101EE
:103560009A6B8A8E1CEC04F0E76E020EE7CFDBFF4D
:10357000020EDB5018E16AEC0AF00101A36F110E94
:103580000101A35D03E136EC16F00DD0120E01012E
:10359000A35D03E136EC16F006D0130E0101A35D26
:1035A00002E136EC16F0020EDB5005E1010141515B
:1035B0000101CD5DD7E38A9E2FD001010F0E9B6FD5
:1035C00001019A6B8A8E1CEC04F0E76E020EE7CFC5
:1035D000DBFF020EDB5016E16AEC0AF00101A36F7B
:1035E000110E0101A35D08E0120E0101A35D04E0CC
:1035F000130E0101A35D06E17EEC0AF0000902E072
:1036000036EC16F0020EDB5005E1010141510101DB
:10361000CD5DD9E38A9E00D00101CD5156E0010174
:10362000C3512AE00001615126E10101F95111E085
:103630000001000E626F070E636FCDC166F00001DE
:10364000676B0001010E616F0101CD6B0101F96B28
:1036500011D00001000E626F020E636FCDC166F0E3
:103660000001676B0001010E616F0101CD6B01016B
:10367000010EF96F8B9429D00001615126E10101FF
:10368000F95111E00001000E626F070E636F010136
:10369000CD290001666F0001010E616F0101CD6B44
:1036A0000101F96B11D00001000E626F020E636F11
:1036B0000101CD290001666F0001010E616F01015A
:1036C000CD6B0101010EF96F8B94F56E030EE15C79
:1036D00002E2E16AE552E16EF550E552E7CFD9FF2B
:1036E0001200D9CFE6FFE1CFD9FF050EE126010197
:1036F0004351050A72E0010A1DE0070A13E0010ABE
:1037000001E0BAD0A69EA69CA68444C1A9FF45C1EB
:10371000A8FF550EA76EAA0EA76EA682A1A8FED777
:10372000A198AAD0A69EA69C44C1A9FFA680A8CF16
:1037300045F1A2D0040EDF6E4451E66ED950030F5E
:10374000E96EDACFEAFFE552E750EE6EED6A4551D9
:10375000106E116AD950030FE96EDACFEAFF1050EC
:10376000EE261150ED224451E66ED950010FE96E5C
:10377000DACFEAFFE552E750EE6EED6A010EDBCFDD
:1037800010F0020EDBCF11F0030EDBCF12F0040EAF
:10379000DBCF13F01250105C135011581DE2A69E9F
:1037A000A69CA684010EDB50A96EDF50EA6A420F88
:1037B000E96E010EEA22EF50A86E550EA76EAA0E12
:1037C000A76EA682A1A8FED7A198DF2A010EDB2A48
:1037D000020E01E3DB2AD2D74FD0040EDF6E45AFD5
:1037E00002D0DED848D04451E66ED950030FE96EBE
:1037F000DACFEAFFE552E750EE6EED6A4551106E02
:10380000116AD950030FE96EDACFEAFF1050EE26A5
:103810001150ED224451E66ED950010FE96EDACF16
:10382000EAFFE552E750EE6EED6A010EDBCF10F0D5
:10383000020EDBCF11F0030EDBCF12F0040EDBCF54
:1038400013F01250105C1350115815E2A69EA69C5E
:10385000010EDB50A96EA680DF50EA6A420FE96EC6
:10386000010EEA22A8CFEFFFDF2A010EDB2A020EAB
:1038700001E3DB2ADAD700D00101100ECC6FF56E20
:10388000050EE15C02E2E16AE552E16EF550E552B7
:10389000E7CFD9FF1200D9CFE6FFE1CFD9FFE6523B
:1038A000FF0EE76EFD0EDBCF10F0FE0EDBCF11F04A
:1038B000E7501016116A1050DF6EDF50000805E265
:1038C000DFCFE6FF25EC2FF0E552FD0EDBCF10F049
:1038D000FE0EDBCF11F011C010F0116A1050DF6E38
:1038E000DF50000832E2DFCFE6FF09EC2FF0E552AF
:1038F000DFCFE6FF09EC2FF0E552DFCFE6FF09EC62
:103900002FF0E552DFCFE6FF25EC2FF0E552DFCFB9
:10391000E6FF25EC2FF0E552DFCFE6FF25EC2FF098
:10392000E552DFCFE6FF25EC2FF0E552DFCFE6FFD3
:1039300025EC2FF0E552DFCFE6FF25EC2FF0E55226
:10394000DFCFE6FF25EC2FF0E552E552E552E7CF59
:10395000D9FF1200D9CFE6FFE1CFD9FFD950FD0F33
:10396000E96EFF0EDA20EA6E000ED880EE54000EEB
:10397000ED5412E2FD0EDBCFE6FFAFEC2EF0E55288
:10398000FD0EDBCFE6FF09EC2FF0E552FD0EDBCF9D
:10399000E6FF09EC2FF0E552E552E7CFD9FF120020
:1039A000D9CFE6FFE1CFD9FF020EE126040EDF6E8C
:1039B0000101846B459F44C182F146C183F1010E30
:1039C000DB6A4551F36E010EDBCFF4FFF350F45C7C
:1039D00022E2010EDBCF10F0116A126A825110242C
:1039E000F36E83511120F46E84511220F86EF4CFDF
:1039F000F7FFF3CFF6FF0800F5CF88F1010EDB509B
:103A0000DF24EA6A420FE96E010EEA2288C1EFFF65
:103A1000010EDB2AD6D7F86AF56E020EE15C02E2EF
:103A2000E16AE552E16EF550E552E7CFD9FF1200A9
:0A3A3000C282C2B2FED700D012001D
:063A3A009C6B9D6B829263
:103A400000D082B075D082B073D082B071D082B015
:103A50006FD082B06DD082B06BD082B069D082B0AE
:103A600067D082B065D082B063D082B061D082B0BE
:103A70005FD082B05DD082B05BD082B059D082B0CE
:103A800057D082B055D082B053D082B051D082B0DE
:103A90004FD082B04DD082B04BD082B049D082B0EE
:103AA00047D082B045D082B043D082B041D082B0FE
:103AB0003FD082B03DD082B03BD082B039D082B00E
:103AC00037D082B035D082B033D082B031D082B01E
:103AD0002FD082B02DD082B02BD082B029D082B02E
:103AE00027D082B025D082B023D082B021D082B03E
:103AF0001FD082B01DD082B01BD082B019D082B04E
:103B000017D082B015D082B013D009D09C2B01D031
:103B10009D2BF28E896B894F02D082B0FCD79A2FF1
:103B200090D79B2F8ED7F28E010E120086EF1DF0DC
:103B300082A0EED7F29E0000000082A082B0E8D7FB
:103B400000000000000082B082A00DD00000000044
:103B5000000082A082B0DCD700000000000082A03C
:103B600082B0D6D70000CE50A96F82A082B0D0D745
:103B7000CF50AA6F000082A082B0CAD70000000018
:103B8000000082B082A0C4D700000000000082A024
:103B900082B0BED700000000000082B082A0B8D77B
:103BA00000000000000082A082B0B2D70000000038
:103BB000000082A082B0ACD700000000000082A00C
:103BC00082B0A6D700000000000082A082B0A0D77B
:103BD00000000000000082A082B09AD70000000020
:103BE000000082A082B094D700008294828282304A
:103BF0008937996B89B1992B000082508919010B83
:103C000095E00000000082308937000000000000CD
:103C1000000082508919010B02E196EF1DF00000AF
:103C200082308937000000000000000082508919AE
:103C3000010B02E196EF1DF0000082308937000091
:103C400000000000000082508919010B02E196EF8C
:103C50001DF00000823089370000000000000000E5
:103C600082508919010B02E196EF1DF000008230AD
:103C70008937000000000000000082508919010B04
:103C800002E196EF1DF0000082308937000000004D
:103C90000000000082508919010B02E196EF1DF02F
:103CA000000082308937000000000000C28282508C
:103CB0008919010B01E13AD7000082308A370000F0
:103CC00000000000000082508A19010B02E196EF0B
:103CD0001DF0000082308A37000000000000000064
:103CE00082508A19010B02E196EF1DF0000082302C
:103CF0008A37000000000000000082508A19010B82
:103D000002E196EF1DF0000082308A3700000000CB
:103D10000000000082508A19010B02E196EF1DF0AD
:103D2000000082308A37000000000000000082504E
:103D30008A19010B02E196EF1DF0000082308A37EC
:103D4000000000000000000082508A19010B02E10F
:103D500096EF1DF0000082308A370000000000005E
:103D6000000082508A19010B02E196EF1DF000005D
:103D700082308A37000000000000000082508A195B
:103D8000010B02E196EF1DF0000082308B3700003E
:103D900000000000000082508B19010B02E196EF39
:103DA0001DF0000082308B37000000000000000092
:103DB00082508B19010B02E196EF1DF0000082305A
:103DC0008B37000000000000000082508B19010BAF
:103DD00002E196EF1DF0000082308B3700000000FA
:103DE0000000000082508B19010B02E196EF1DF0DC
:103DF000000082308B37000000000000000082507D
:103E00008B19010B02E196EF1DF0000082308B3719
:103E1000000000000000000082508B19010B02E13D
:103E200096EF1DF0000082308B370000000000008C
:103E3000000082508B19010B02E196EF1DF000008B
:103E400082308B37000000000000000082508B1988
:103E5000010B02E196EF1DF0000082308C3700006C
:103E600000000000000082508C19010B02E196EF67
:103E70001DF0000082308C370000000000000000C0
:103E800082508C19010B02E196EF1DF00000823088
:103E90008C37000000000000000082508C19010BDC
:103EA00002E196EF1DF0000082308C370000000028
:103EB0000000000082508C19010B02E196EF1DF00A
:103EC000000082308C3700000000000000008250AB
:103ED0008C19010B02E196EF1DF0000082308C3747
:103EE000000000000000000082508C19010B02E16C
:103EF00096EF1DF0000082308C37000000000000BB
:103F0000000082508C19010B02E196EF1DF00000B9
:103F100082308C37000000000000000082508C19B5
:103F2000010B02E196EF1DF0000082308D3700009A
:103F300000000000000082508D19010B02E196EF95
:103F40001DF0000082308D370000000000000000EE
:103F500082508D19010B02E196EF1DF000008230B6
:103F60008D37000000000000000082508D19010B09
:103F700002E196EF1DF0000082308D370000000056
:103F80000000000082508D19010B02E196EF1DF038
:103F9000000082308D3700000000000000008250D9
:103FA0008D19010B02E196EF1DF0000082308D3774
:103FB000000000000000000082508D19010B02E19A
:103FC00096EF1DF0000082308D37000000000000E9
:103FD000000082508D19010B02E196EF1DF00000E8
:103FE00082308D37000000000000000082508D19E3
:103FF000010B02E196EF1DF0000082308E370000C9
:1040000000000000000082508E19010B02E196EFC3
:104010001DF0000082308E3700000000000000001C
:1040200082508E19010B02E196EF1DF000008230E4
:104030008E37000000000000000082508E19010B36
:1040400002E196EF1DF0000082308E370000000084
:104050000000000082508E19010B02E196EF1DF066
:10406000000082308E370000000000000000825007
:104070008E19010B02E196EF1DF0000082308E37A1
:10408000000000000000000082508E19010B02E1C8
:1040900096EF1DF0000082308E3700000000000017
:1040A000000082508E19010B02E196EF1DF0000016
:1040B00082308E37000000000000000082508E1910
:1040C000010B02E196EF1DF0000082308F370000F7
:1040D00000000000000082508F19010B02E196EFF2
:1040E0001DF0000082308F3700000000000000004B
:1040F00082508F19010B02E196EF1DF00000823013
:104100008F37000000000000000082508F19010B63
:1041100002E196EF1DF0000082308F3700000000B2
:104120000000000082508F19010B02E196EF1DF094
:10413000000082308F370000000000000000825035
:104140008F19010B02E196EF1DF0000082308F37CE
:10415000000000000000000082508F19010B02E1F6
:1041600096EF1DF0000082308F3700000000000045
:10417000000082508F19010B02E196EF1DF0000044
:1041800082308F37000000000000000082508F193D
:10419000010B02E196EF1DF099A1D8D28230903741
:1041A000000000000000000082509019010B02E1A5
:1041B00096EF1DF0000082309037000000000000F4
:1041C000000082509019010B02E196EF1DF00000F3
:1041D00082309037000000000000000082509019EB
:1041E000010B02E196EF1DF00000823090370000D5
:1041F00000000000000082509019010B02E196EFD0
:104200001DF0000082309037000000000000000028
:1042100082509019010B02E196EF1DF000008230F0
:104220009037000000000000000082509019010B40
:1042300002E196EF1DF00000823090370000000090
:104240000000000082509019010B02E196EF1DF072
:104250000000823090370000000000000000825013
:104260009019010B02E196EF1DF0000082309137AA
:10427000000000000000000082509119010B02E1D3
:1042800096EF1DF000008230913700000000000022
:10429000000082509119010B02E196EF1DF0000021
:1042A0008230913700000000000000008250911918
:1042B000010B02E196EF1DF0000082309137000003
:1042C00000000000000082509119010B02E196EFFE
:1042D0001DF0000082309137000000000000000057
:1042E00082509119010B02E196EF1DF0000082301F
:1042F0009137000000000000000082509119010B6E
:1043000002E196EF1DF000008230913700000000BE
:104310000000000082509119010B02E196EF1DF0A0
:104320000000823091370000000000000000825041
:104330009119010B02E196EF1DF0000082309237D7
:10434000000000000000000082509219010B02E101
:1043500096EF1DF000008230923700000000000050
:10436000000082509219010B02E196EF1DF000004F
:104370008230923700000000000000008250921945
:10438000010B02E196EF1DF0000082309237000031
:1043900000000000000082509219010B02E196EF2C
:1043A0001DF0000082309237000000000000000085
:1043B00082509219010B02E196EF1DF0000082304D
:1043C0009237000000000000000082509219010B9B
:1043D00002E196EF1DF000008230923700000000ED
:1043E0000000000082509219010B02E196EF1DF0CF
:1043F0000000823092370000000000000000825070
:104400009219010B02E196EF1DF000008230933704
:10441000000000000000000082509319010B02E12F
:1044200096EF1DF00000823093370000000000007E
:10443000000082509319010B02E196EF1DF000007D
:104440008230933700000000000000008250931972
:10445000010B02E196EF1DF000008230933700005F
:1044600000000000000082509319010B02E196EF5A
:104470001DF00000823093370000000000000000B3
:1044800082509319010B02E196EF1DF0000082307B
:104490009337000000000000000082509319010BC8
:1044A00002E196EF1DF0000082309337000000001B
:1044B0000000000082509319010B02E196EF1DF0FD
:1044C000000082309337000000000000000082509E
:1044D0009319010B02E196EF1DF000008230943732
:1044E000000000000000000082509419010B02E15E
:1044F00096EF1DF0000082309437000000000000AD
:10450000000082509419010B02E196EF1DF00000AB
:10451000823094370000000000000000825094199F
:10452000010B02E196EF1DF000008230943700008D
:1045300000000000000082509419010B02E196EF88
:104540001DF00000823094370000000000000000E1
:1045500082509419010B02E196EF1DF000008230A9
:104560009437000000000000000082509419010BF5
:1045700002E196EF1DF00000823094370000000049
:104580000000000082509419010B02E196EF1DF02B
:1045900000008230943700000000000000008250CC
:1045A0009419010B02E196EF1DF00000823095375F
:1045B000000000000000000082509519010B02E18C
:1045C00096EF1DF0000082309537000000000000DB
:1045D000000082509519010B02E196EF1DF00000DA
:1045E00082309537000000000000000082509519CD
:1045F000010B02E196EF1DF00000823095370000BC
:1046000000000000000082509519010B02E196EFB6
:104610001DF000008230953700000000000000000F
:1046200082509519010B02E196EF1DF000008230D7
:104630009537000000000000000082509519010B22
:1046400002E196EF1DF00000823095370000000077
:104650000000000082509519010B02E196EF1DF059
:1046600000008230953700000000000000008250FA
:104670009519010B02E196EF1DF00000823096378C
:10468000000000000000000082509619010B02E1BA
:1046900096EF1DF000008230963700000000000009
:1046A000000082509619010B02E196EF1DF0000008
:1046B00082309637000000000000000082509619FA
:1046C000010B02E196EF1DF00000823096370000EA
:1046D00000000000000082509619010B02E196EFE5
:1046E0001DF000008230963700000000000000003E
:1046F00082509619010B02E196EF1DF00000823006
:104700009637000000000000000082509619010B4F
:1047100002E196EF1DF000008230963700000000A5
:104720000000000082509619010B02E196EF1DF087
:104730000000823096370000000000000000825028
:104740009619010B02E196EF1DF00000829282841F
:08475000F28E000E12001200AF
:084758006C500CE168960401AD
:1047600000513C0BE842E8420D0802E10ED801D0AE
:1047700046D808D0040E6C5C03E1689650D802D08D
:10478000000E02D0010E00D01200D9CFE6FFE1CF1B
:10479000D9FFE652040104BF046B00018A6B826BEF
:1047A000836B886B896B40EC27F0DF6ADF50106EFB
:1047B000116A010E105C000E11581BE200018351BA
:1047C00001E017D0F76ADF34FE0BF736F66E910E74
:1047D000F626590EF7220900F5CF10F00800F5CFA4
:1047E00011F004D011C0FAFF1050F96EFBDFDF2A80
:1047F000DDD7F2D8E552E552E7CFD9FF1200020E1D
:104800000001825D0AE1A9D8040100BD03D0C80EF1
:10481000006F02D0880E006F01D024D91200040E60
:104820000101FA5D0AE122C46EFF6E50000803E246
:10483000050EFA6F02D0030EFA6F0001820512E135
:1048400013D8020E00018A5D04E10401840E046F96
:1048500008D0040104BD03D0C80E046F02D0880E36
:10486000046F01D0FFD81200D9CFE6FFE1CFD9FF06
:10487000020EE1260001080E885D000E89590EE245
:1048800088C0DEFF89C0DDFF8A5103E1010E8A6F17
:1048900004D08A0502E1020E8A6F03D0080EDE6E94
:1048A000DD6A040104930491010EDB500413DFCF91
:1048B00005F4000EDB500001885F010EDB50895BC0
:1048C000280E866F040E876F0101FBA31ED0D9CF7F
:1048D000E9FFDACFEAFFEE50ED1016E084C0F6FFF4
:1048E00085C0F7FF0800F55086C0E9FF87C0EAFFE2
:1048F000EF6E0001862B000E8723842B8523DF06B5
:10490000010E01E2DB06E3D71CD0D9CFE9FFDACFF5
:10491000EAFFEE50ED1015E084C0E9FF85C0EAFF24
:10492000EF5086C0E9FF87C0EAFFEF6E0001862BDB
:10493000000E8723842B8523DF06010E01E2DB06B0
:10494000E4D7F56E020EE15C02E2E16AE552E16E47
:10495000F550E552E7CFD9FF1200D9CFE6FFE1CFFE
:10496000D9FF020EE126030E04010015E76E010EC9
:10497000E7CFDBFF01C4DFFFDE5000018827DD50F9
:104980008923280E846F040E856FD9CFE9FFDACF13
:10499000EAFFEE50ED1014E084C0E9FF85C0EAFFA5
:1049A000EF5086C0E9FF87C0EAFFEF6E862B000E4E
:1049B0008723842B8523DF06010E01E2DB06E5D782
:1049C000F56E020EE15C02E2E16AE552E16EF5503D
:1049D000E552E7CFD9FF12006D98000183510CE139
:1049E0000401080E016F200E026F040E036F840E87
:1049F000006F0401046F35D0040120AF22D0000104
:104A000088510401265D000189510401275904E2FF
:104A100026C488F027C489F027DF0001010E826FC9
:104A20000401080E016F200E026F040E036F800E4A
:104A3000006F0401280E066F040E076FC80E046F86
:104A400010D00001020E826F0401056BC80E046FC6
:104A50000401080E016F280E026F040E036FC80ECA
:104A6000006F1200D9CFE6FFE1CFD9FFE652020E68
:104A70000001825D36E16D50100B33E004010151FD
:104A8000106E116A080E101801E111502AE1005150
:104A90003C0BE842E8420D0824E10051800B21E183
:104AA000200E026F040E036FDF6ADF50106E116A72
:104AB000080E105C000E115813E2DF50EA6A280F4E
:104AC000E96E040EEA22EF50E66EDF50EA6A200F2C
:104AD000E96E040EEA22E552E750EF6EDF2AE5D7D1
:104AE0000DD00001826B0401080E016F200E026FD1
:104AF000040E036F8C0E006F0401046BE552E55247
:064B0000E7CFD9FF12000F
:0A4B0600040120511F0B010801E01B
:104B10005BD02051600BE842E842E842E842E842BC
:104B2000010801E051D0245103E0240501E04CD0FC
:104B30002151230A48E0010A40E0030A30E0010A5B
:104B400025E0240A22E0070A1FE0010A1CE0030A0C
:104B500011E0010A01E038D00001030E836F00016B
:104B6000700E846F000E856F0101FB930001080E2B
:104B7000886F2AD00001030E836F0001700E866FCC
:104B8000000E876F21D020D01FD01ED00001030E51
:104B9000836F0001680E866F000E876F15D00001CD
:104BA000030E836F0001680E846F000E856F010194
:104BB000FB930001070E886F07D00001030E836F7F
:104BC00022C46FF001D000D012000001686BC20E49
:104BD000696F010E6A6F6B6B6C6B6D6B080E6E6F9D
:104BE000616B606B1A0E726E1E0E736E0401300ED6
:104BF000166F040E176F400E146F0401196F380EF4
:104C00001A6F040E1B6F880E186F0401780E1E6F4A
:104C1000040E1F6F400E1C6F1200D9CFE6FFE1CFCC
:104C2000D9FF0001606B040118BF30D0FC0EDBCF50
:104C300010F01951D880105403E2FC0E19C4DBFFA8
:104C40000001606BFC0EDB50605D19E26051EA6AA6
:104C5000380FE96E040EEA22EF50E66E6051E76EFF
:104C6000FD0EDBCFE9FFFE0EDBCFEAFFE750E926C2
:104C7000000EEA22E552E750EF6E602BE3D7040105
:104C8000400E196F1817187D880E18130001605117
:104C900000D0E552E7CFD9FF1200D9CFE6FFE1CF30
:104CA000D9FFE6520001615101E02FD0DF6ADF2A0F
:104CB000DF50106E116AFF0E101801E1115001E172
:104CC0000BD0FD0EDBCFE9FFDB2AFE0EDBCFEAFFC8
:104CD00001E3DB2AEF50EBE1DF50106E116AD9508F
:104CE000FD0FE96EFF0EDA20EA6E1050EE5E1150F5
:104CF000ED5AFD0EDBCF62F0FE0EDBCF63F0DFCFAF
:104D000066F00001676B010E616FE552E552E7CF77
:104D1000D9FF1200D9CFE6FFE1CFD9FFE65200015B
:104D2000615101E030D0DF6ADF2ADF50106E116A76
:104D3000FF0E101801E1115001E10CD0FD0EDBCF88
:104D4000F6FFDB2AFE0EDBCFF7FF01E3DB2A0800CC
:104D5000F550EAE1DF50106E116AD950FD0FE96E8F
:104D6000FF0EDA20EA6E1050EE5E1150ED5AFD0E85
:104D7000DBCF62F0FE0EDBCF63F0DFCF66F0000129
:104D8000010E676F616FE552E552E7CFD9FF120060
:104D9000D9CFE6FFE1CFD9FFE65204011CBF6BD0AB
:104DA000030E0001615D01E1616B615101E163D0BE
:104DB000020E615D06E104011D6B0001030E616FCF
:104DC00054D0610552E1400E106E116A6651105CBC
:104DD000000E115803E2400EDF6E02D066C0DFFF06
:104DE000DFCF1DF4DF50665D666F780E646F040ED2
:104DF000656F670515E1DF5012E062C0F6FF63C022
:104E0000F7FF0800F55064C0E9FF65C0EAFFEF6EE8
:104E1000642B000E6523622B6323DF06ECD713D0CF
:104E2000DF5011E062C0E9FF63C0EAFFEF5064C0E9
:104E3000E9FF65C0EAFFEF6E642B000E6523622B6D
:104E40006323DF06EDD7665110E104011D51106E9A
:104E5000116A400E101801E1115004E10001020E28
:104E6000616F03D00001030E616F400E04011C1737
:104E70001C7D880E1C13E552E552E7CFD9FF1200C6
:104E800004012051600BE842E842E842E842E8426F
:104E9000000901E055D02151070A51E00B0A4FE00B
:104EA000070A40E0010A2CE00B0A28E0020A26E08B
:104EB000030A22E0080A12E0010A0EE00F0A0AE0E3
:104EC000030A01E03CD00001010E836F0101040ED2
:104ED000FA6F36D036D834D090D832D00001010ED7
:104EE000836F0001FC0E846F010E856F0101FB933F
:104EF0000001010E886F24D0A8D822D0F4D820D089
:104F00000001010E836F040124510001846F856B41
:104F1000FD0E8427010E85230101FB930001010E84
:104F2000886F0ED00001010E836F04012451EA6ADC
:104F3000FD0FE96E010EEA2222C4EFFF01D000D07E
:104F40001200800E0401205D57E12351030A34E072
:104F5000010A10E0030A01E04DD00001010E836F49
:104F60000001CE0E846F580E856F120E0001886FFF
:104F7000896B40D00001010E836F04012251F66E4F
:104F8000F76AD890F636F736870EF626590EF722CE
:104F90000900F5CF84F00A00F5CF85F0020E00017C
:104FA000F76A8425F66E8551F7220900F5CF88F05F
:104FB0000A00F5CF89F01ED00001010E836F0401B5
:104FC0002251F66EF76AD890F636F7368B0EF62633
:104FD000590EF7220900F5CF84F00A00F5CF85F0CD
:104FE00084C0F6FF85C0F7FF0800F5500001886F08
:104FF000896B00D00101FB8312000001010E836F59
:105000000F0EE66E710EE66E0F0EE66E95EC2BF04F
:10501000E552E552E552010EE66EFD0EE66E010E1A
:10502000E66E95EC2BF0E552E552E55222C4FCF118
:105030000401225104E10101050EFA6F05D00101BE
:10504000060EFA6FE5EC25F012000401286B296BBF
:10505000040120511F0B020A14E0030A0EE0010AAA
:1050600001E033D00001010E836F040128810101AA
:10507000FBA102D00401288328D00001010E836F18
:1050800024D00001010E836F040124510F0B080D81
:10509000F350116A000F106E040E11222451800B80
:1050A00001E0010E040DF35000011024866F000E84
:1050B0001120876F86C0E9FF87C0EAFFEF50040B1D
:1050C00003E00401010E286F00D0000183050AE10E
:1050D0000001280E846F040E856F0101FB9300010F
:1050E000020E886F12000401220510E120511F0BEF
:1050F00000090CE10001010E836F030E0401215D24
:1051000003E10101FB8102D00101FB910401225165
:105110003BE120511F0B020837E124510F0B00091E
:1051200033E00001010E836F040124510F0B080DC1
:10513000F350116A000F106E040E11222451800BDF
:1051400001E0010E040DF35000011024866F000EE3
:105150001120876F030E0401215D07E1840E86C0D4
:10516000E9FF87C0EAFFEF6E0FD024AF07D0400EF3
:1051700086C0E9FF87C0EAFFEF6E06D0880E86C0C2
:0A518000E9FF87C0EAFFEF6E12009E
:06518A00D9CFE6FFE1CFE2
:10519000D9FFE6520101180EB56F010EB66FA66A6F
:1051A000A96AA680A8CFE3F10A0E0101E35D02E23D
:1051B000640EE36FE351106E116A113404E2105073
:1051C000FA08000E115402E2640EE36FA66A030EA1
:1051D000A96EA680A850DF6EDF0403E10101E46B35
:1051E00003D00101010EE46FDF50010802E2DFCFBE
:1051F000E4F10101B4690101FC0EB36F8C0E0101F1
:10520000B76FB86B010EE66EE66AEBEC2DF0E55277
:10521000E5527F0E0101B315E66E94EC2EF0E552D7
:10522000B4C1E6FFDDEC2EF0E552B7C1E6FFB8C130
:10523000E6FFEBEC2DF0E552E552E552E552E7CF03
:10524000D9FF1200D9CFE6FFE1CFD9FF020EE12648
:105250007ED8F3CFB9F1F4CFBAF185D8F3CFBBF153
:10526000F4CFBCF10101E3510101136AB925126EBB
:10527000BA5113220101BB51125C106EBC5113587C
:10528000116E0A0E0B6E0C6A10C006F011C007F00A
:1052900048EC2EF006C010F007C011F010C0DEFF81
:1052A00011C0DDFFD9CFE9FFDACFEAFFEE500101EF
:1052B000B727EE50B823E80ED880B755030EB8557F
:1052C00004E2E80EB76F030EB86F320EB75D000E42
:1052D000B85903E2320EB76FB86BB7C1E6FFB8C179
:1052E000E6FFEBEC2DF0E552E552050EC26EDECF87
:1052F00010F0DDCF11F010C0F3FF11C0F4FFF56E18
:10530000020EE15C03E200D0E16AE552E16EF55085
:10531000E552E7CFD9FF1200B5C1E6FFB6C1E6FFFF
:10532000EBEC2DF0E552E5521200B7C1E6FFB8C133
:10533000E6FFEBEC2DF0E552E5521200010EB46EE3
:10534000050EC26E0D0EC16EFE0EC06E1200050E71
:10535000C26E640EE66EE66A4BEC1CF0E552E55256
:105360000ED800D01200010EC26E640EE66EE66A20
:105370004BEC1CF0E552E55202D800D01200D9CF18
:10538000E6FFE1CFD9FF020EE126C282C2B2FED70C
:10539000C350DF6E010EC4CFDBFFD9CFE9FFDACFF8
:1053A000EAFF050EEC02F3CFEDFFEF02F3CFEEFFC5
:1053B000F450ED26DECF10F0DDCF11F010C0F3FF7A
:1053C00011C0F4FFF56E020EE15C03E200D0E16A69
:0E53D000E552E16EF550E552E7CFD9FF12002D
:0253DE00D9CF25
:1053E000E6FFE1CFD9FFFE0EDBCFE6FF87D8E5521F
:1053F000106E103404E3030E010142174281BCD841
:10540000106E103404E3030E010142174283050EAF
:10541000E66E25EC2FF0E552E552E7CFD9FF1200FA
:105420008150400B01E0010E106E8150200B01E015
:10543000010E101416E047D8C20EE66ED0DFE5521A
:10544000300EE66ECCDFE5528C0EE66EC8DFE5521C
:105450008E0EE66EC4DFE552E66AC1DFE5523BD848
:1054600002D00101426B1200D9CFE6FFE1CFD9FF94
:10547000E6528150400B01E0010E106E8150200B6E
:1054800001E0010E101418E01ED8DF6A010143513B
:10549000DF5C10E2020EDF24E96EEA6AE9BEEA6828
:1054A000420EE926010EEA22EF50E66E98DFE55241
:1054B000DF2AECD710D802D00101426BE552E55249
:1054C000E7CFD9FF12008A9A939A050EE66E25EC73
:1054D0002FF0E55212008A9C939C8A9A939A050EAB
:1054E000E66E25EC2FF0E552938C050EE66E25EC6A
:1054F0002FF0E552938A000000001200D9CFE6FF9A
:10550000E1CFD9FF0101080EFF6FFE0EDBCFFEF1E8
:105510008A9C81BC07D030EC2FF0000902E0FF0E1E
:1055200027D021D0FE37D8A00ED0939C938A050EA9
:10553000E66E25EC2FF0E552938C050EE66E25EC19
:105540002FF0E5520ED0939C8A9A939A050EE66E40
:1055500025EC2FF0E552938C050EE66E25EC2FF02E
:10556000E5520101FF070101FF51D3E1000E00D018
:10557000E552E7CFD9FF12008A9C939C938A050ECF
:10558000E66E25EC2FF0E552938C0000000081AA16
:0E55900003D0FF0E03D002D0000E00D0120098
:02559E006DA6F8
:1055A0000FD802D06DB613D80101FA0508E16DBA23
:1055B00006D0686A696A69806988020EFA6F12000B
:1055C0006D6A696A6D860101010EFA6F12006D6ADB
:1055D000696A0101FA6B1200E7EF2AF00101FA5142
:1055E00001E145D06850040B04E06950040B01E070
:1055F00047D86DB23CD06850010B04E06950010BF4
:1056000001E06BD86850100B04E06950100B01E00A
:105610002FD86850400B04E06950400B01E049D896
:105620006850200B04E06950200B01E044D868501A
:10563000020B04E06950020B01E04DD8030E01019A
:10564000FA5D01E214D000018B6B040E8B5D0FE25A
:105650006850080B0BE06950080B08E0ACEC23F035
:10566000000901E1689600018B2BEFD700D01200F2
:10567000698468986D82A19AA08A0300A09A12009A
:105680006D92699468A402D06894FCD7120001015D
:10569000FBA10ED06D926D840001080E8C6F070E79
:1056A0008D6F8C07000E8D5B8C518D11FAE16D941E
:1056B0001200689C120070A00CD0800E0401005DE6
:1056C00007E1840E0401045D03E104018C0E006F08
:1056D0007090689A12006A6A12006A6A686A9F0E7D
:1056E0006B6E7B0E696E6E6A0F0EE66E710EE66E65
:1056F0000F0EE66E1AD8E552E552E552160E706EA0
:1057000068A608D0689600000000000000000000B5
:105710000000F6D76D9832EC25F00101FB910101F4
:10572000FC6B0101030EFA6F1200D9CFE6FFE1CF47
:10573000D9FFFD0EDBCFE9FFFE0EDBCFEAFFFC0E4B
:10574000DB5004E0EE6AFC0EDB06F9D7E552E7CF4A
:04575000D9FF12006B
:0C575400D9CFE6FFE1CFD9FF020EE1261D
:1057600081A006D0DF6A81BC02D0010EDF6E0AD0B4
:10577000A66A010EA96EA680A850DF6EDF5002084F
:1057800001E2DF6ADF500BE1190EE66EE66A7C0E7D
:10579000E66E78EC2DF0E552E552E552B896DF045E
:1057A0000BE10C0EE66EE66A7C0EE66E78EC2DF0F0
:1057B000E552E552E552B886020EDF5C0BE19B0E26
:1057C000E66EE66A7C0EE66E78EC2DF0E552E55268
:1057D000E552B896A66A020EA96EA680010EA8CF61
:1057E000DBFFDB50010802E2010EDB6A010EDB5039
:1057F00004E1CF0EB814B86E03D0300EB810B86EF6
:105800000001616B0001606B9E9A9D8AF28CF28EA2
:10581000F56E020EE15C02E2E16AE552E16EF550DE
:10582000E552E7CFD9FF12000001616B12001200B0
:1058300058EF2CF0D9CFE6FFE1CFD9FF0001606B24
:105840000101C5512EE0FC0EDBCF10F00101C45167
:10585000D880105403E2FC0EC4C1DBFF0001606B72
:10586000FC0EDB50605D19E26051EA6A380FE96EA8
:10587000040EEA22EF50E66E6051E76EFD0EDBCFBC
:10588000E9FFFE0EDBCFEAFFE750E926000EEA2231
:10589000E552E750EF6E602BE3D70101C46B0101C5
:1058A000C56B0001605100D0E552E7CFD9FF12006F
:1058B0000001615101E10AD062C0E6FF63C0E6FF6A
:0E58C0006EEC2EF0E552E5520001616B120015
:0258CE001201C5
:1058D000000202000008D8040A00010001020001D1
:1058E00009024300020100C0320904000001020263
:1058F0000100052400100104240202052406000111
:1059000005240100010705820308000209040100C3
:10591000020A000000070503024000000705830299
:10592000400000040309042A03730070007200752C
:10593000007400200028007700770077002E0073A5
:105940000070007200750074002E0064006500296C
:1059500000360341004400530042002D005000492E
:10596000004300200056002E0031003200200028A5
:105970000073007000720075007400200032003067
:1059800000310032002900E058E0582359275951CE
:0359900059064B6A
:0C599400DACFE4FFE2CFDAFFE9CFE4FF56
:1059A000EACFE4FFE652D9CFE6FFE1CFD9FF020EFE
:1059B000E1269EAA28D0AB50DF6E010EAECFDBFFF2
:1059C0000101C451C42BEA6A380FE96E040EEA22C1
:1059D000010EDBCFEFFFDB500D0802E1C4C1C5F1C2
:1059E000010EDB500A0802E1C4C1C5F1010EDB5013
:1059F00002E1C4C1C5F1400EC45D03E3C46B010103
:105A0000C56BAB889E9AF56E020EE15C02E2E16A1C
:105A1000E552E16EF550E552E7CFD9FFE552E5CF0B
:105A2000EAFFE5CFE9FFE5CFDAFF1100D8CFE4FFC9
:105A3000E0CFE4FFE46EDACFE4FFE2CFDAFFE65234
:105A4000E552E5CFDAFFE550E5CFE0FFE5CFD8FF3F
:025A5000100044
:0E5A52002A0EF66E080EF76E000EF86E0001BA
:105A60000900F5507D6F0900F5507E6F03E17D67F9
:105A700001D03DD00900F550786F0900F550796FDD
:105A80000900F5507A6F09000900F550E96E090028
:105A9000F550EA6E090009000900F5507B6F090016
:105AA000F5507C6F09000900F6CF7FF0F7CF80F04A
:105AB000F8CF81F078C0F6FF79C0F7FF7AC0F8FF21
:105AC00000017B5302E17C5307E00900F550EE6EC4
:105AD0007B07F8E27C07F9D77FC0F6FF80C0F7FFAD
:105AE00081C0F8FF00017D07000E7E5BBFD712006A
:105AF000D9CFE6FFDACFE6FFE1CFD9FFE2CFDAFF79
:105B0000AC6AAB6AFD0EDBB0AC88DBA202D0AC8C19
:105B1000AB8CDBB4AC8EDBA602D0AB8801D0AB8AF9
:105B2000DBA802D0AC8401D0AC949E98DBAC02D050
:105B30009D8A01D09D9A9E9ADBAE02D09D8801D0AD
:105B40009D98FB0EDB50AF6EFB0EFC0EDBCF11F011
:105B500011C010F0116A1050B06EAC8AAB8EE552D5
:0A5B6000E5CFDAFFE7CFD9FF12000E
:065B6A000ED80101C35139
:105B700005E029D882EC16F0FCD705D018EC2CF003
:105B800082EC16F0FBD71200F19E010EE66EE66A7B
:105B9000AAEC1CF0E552E5520F0EC1128150020B27
:105BA00001E0010E0101C36FC35109E0140E6F6ED5
:105BB0000101FA6B0101FB6B0101FC6B02D0AAEC45
:105BC0002BF03DEF16F0CFEC2AF06FBE02D0EEECDA
:065BD0002AF0C8EF26F0E8
:0A5BD600D9CFE6FFDACFE6FFE1CFFA
:105BE000D9FFE2CFDAFFE652E652FC0EDBCF10F02F
:105BF000FD0EDBCF11F0060ED89010361136E804FA
:105C0000FBE110C0DEFF11C0DDFF010EDB50BB6EFB
:105C1000DF50E840E8403F0B300B106ECF0EBA1457
:105C20001010BA6EE552E552E552E5CFDAFFE7CF44
:045C3000D9FF120086
:0C5C34000101080EFF6F8A92939293808A
:105C4000010EE66E25EC2FF0E55293820000000075
:105C500081B208D030EC2FF0000904E0FE0EF36EA4
:105C6000F46815D00101FE9FFE470101FE9181A05D
:105C700002D00101FE810101FF07E0E10101FE51B7
:105C8000106E116A10C0F3FF11C0F4FF00D01200B3
:105C90000E6A0CAE51EF2EF00B6C0C1EE86A0C2253
:105CA0000E1E07AE59EF2EF0066C071EE86A07229B
:105CB0000E1EF3EC2EF007BE69EF2EF00EAE000CB8
:105CC000066C071EE86A0722026C031EE86A0322BC
:0C5CD000000C0EBE60EF2EF00F88FF0CE1
:045CDC00D9CFE6FF37
:105CE000DACFE6FFE1CFD9FFE2CFDAFFACA2FED7F1
:105CF000FC0EDBCFE9FFFD0EDBCFEAFFEF50E66ED7
:105D0000C6EC2EF0E552FC0EDBCFE9FFDB2AFD0EE0
:105D1000DBCFEAFF01E3DB2AEF50E8E1E552E5CF14
:085D2000DAFFE7CFD9FF120002
:085D2800D9CFE6FFDACFE6FF58
:105D3000E1CFD9FFE2CFDAFFFD0EDB50FB0BCA6EDD
:105D4000CC6A9E92FD0EDBAE02D09D8201D09D9268
:0E5D5000CA84E552E5CFDAFFE7CFD9FF120093
:025D5E00FF0E36
:105D6000E350156EEF0E01D0F30EE76EE72EB6EF9F
:105D70002EF00C0E146EE76AE72EBCEF2EF0142EF8
:0C5D8000BBEF2EF0152EB4EF2EF0120039
:045D8C00D9CFE6FF86
:105D9000DACFE6FFE1CFD9FFE2CFDAFFACAC04D037
:105DA000AC9000018EB3AC80FD0EDB50AD6EE552C1
:0A5DB000E5CFDAFFE7CFD9FF1200BC
:065DBA00D9CFE6FFDACFAD
:105DC000E6FFE1CFD9FFE2CFDAFF0C0EBA6ECA943C
:105DD0009492FD0EDB50CB6ECA84E552E5CFDAFF1C
:065DE000E7CFD9FF12001D
:0A5DE600036A026A100EE76ED890FF
:105DF00006360736023603360B50025C0C50035849
:105E000005E30B50025E0C50035A062AE72EF0D72A
:025E100012007E
:0E5E1200FF0EE350156E480E01D04C0EE76EE9
:105E2000E72EFED7E76AE72EFED7152EF7D700003C
:025E300012005E
:0E5E320013EE00F023EE00F0F86A0F9C29EC4E
:0A5E40002DF0B5EC2DF0FDD7120097
:065E4A00FF0EE350E84EDC
:105E50001200000000D000D000D0E82EFAD71200C7
:105E6000030EE66E25EC2FF0E55281A2FE0C000C2D
:105E70000000000000000000000000000000000022
:105E80000000000000000000000000000000000012
:105E900000006401010000303132333435363738C8
:095EA0003941424344454600002B
:020000040030CA
:0100000024DB
:010001000EF0
:0100020028D5
:010003001EDE
:01000500807A
:010006008178
:00000001FF
